{
  "contractName": "DPKI",
  "abi": [
    {
      "anonymous": false,
      "inputs": [
        {
          "indexed": false,
          "name": "addr",
          "type": "address"
        }
      ],
      "name": "AddedIdentity",
      "type": "event"
    },
    {
      "anonymous": false,
      "inputs": [
        {
          "indexed": false,
          "name": "addr",
          "type": "address"
        }
      ],
      "name": "AddedDIDHash",
      "type": "event"
    },
    {
      "constant": false,
      "inputs": [
        {
          "name": "_no",
          "type": "string"
        },
        {
          "name": "_pubkey",
          "type": "string"
        }
      ],
      "name": "addIdentity",
      "outputs": [],
      "payable": false,
      "stateMutability": "nonpayable",
      "type": "function"
    },
    {
      "constant": false,
      "inputs": [
        {
          "name": "_fileHash",
          "type": "string"
        }
      ],
      "name": "saveDIDHash",
      "outputs": [],
      "payable": false,
      "stateMutability": "nonpayable",
      "type": "function"
    },
    {
      "constant": true,
      "inputs": [
        {
          "name": "_addr",
          "type": "address"
        }
      ],
      "name": "getIdentity",
      "outputs": [
        {
          "name": "",
          "type": "string"
        },
        {
          "name": "",
          "type": "string"
        },
        {
          "name": "",
          "type": "string"
        }
      ],
      "payable": false,
      "stateMutability": "view",
      "type": "function"
    },
    {
      "constant": true,
      "inputs": [],
      "name": "getIdentityNumber",
      "outputs": [
        {
          "name": "",
          "type": "uint256"
        }
      ],
      "payable": false,
      "stateMutability": "pure",
      "type": "function"
    }
  ],
  "bytecode": "0x608060405234801561001057600080fd5b50610aca806100206000396000f3fe608060405260043610610062576000357c0100000000000000000000000000000000000000000000000000000000900463ffffffff1680632fea7b81146100675780637a7607f514610209578063b642721014610234578063f42fda2c14610393575b600080fd5b34801561007357600080fd5b506100b66004803603602081101561008a57600080fd5b81019080803573ffffffffffffffffffffffffffffffffffffffff16906020019092919050505061045b565b60405180806020018060200180602001848103845287818151815260200191508051906020019080838360005b838110156100fe5780820151818401526020810190506100e3565b50505050905090810190601f16801561012b5780820380516001836020036101000a031916815260200191505b50848103835286818151815260200191508051906020019080838360005b83811015610164578082015181840152602081019050610149565b50505050905090810190601f1680156101915780820380516001836020036101000a031916815260200191505b50848103825285818151815260200191508051906020019080838360005b838110156101ca5780820151818401526020810190506101af565b50505050905090810190601f1680156101f75780820380516001836020036101000a031916815260200191505b50965050505050505060405180910390f35b34801561021557600080fd5b5061021e610704565b6040518082815260200191505060405180910390f35b34801561024057600080fd5b506103916004803603604081101561025757600080fd5b810190808035906020019064010000000081111561027457600080fd5b82018360208201111561028657600080fd5b803590602001918460018302840111640100000000831117156102a857600080fd5b91908080601f016020809104026020016040519081016040528093929190818152602001838380828437600081840152601f19601f8201169050808301925050505050505091929192908035906020019064010000000081111561030b57600080fd5b82018360208201111561031d57600080fd5b8035906020019184600183028401116401000000008311171561033f57600080fd5b91908080601f016020809104026020016040519081016040528093929190818152602001838380828437600081840152601f19601f82011690508083019250505050505050919291929050505061070c565b005b34801561039f57600080fd5b50610459600480360360208110156103b657600080fd5b81019080803590602001906401000000008111156103d357600080fd5b8201836020820111156103e557600080fd5b8035906020019184600183028401116401000000008311171561040757600080fd5b91908080601f016020809104026020016040519081016040528093929190818152602001838380828437600081840152601f19601f8201169050808301925050505050505091929192905050506108bd565b005b60608060606000808573ffffffffffffffffffffffffffffffffffffffff1673ffffffffffffffffffffffffffffffffffffffff1681526020019081526020016000206000016000808673ffffffffffffffffffffffffffffffffffffffff1673ffffffffffffffffffffffffffffffffffffffff1681526020019081526020016000206001016000808773ffffffffffffffffffffffffffffffffffffffff1673ffffffffffffffffffffffffffffffffffffffff168152602001908152602001600020600201828054600181600116156101000203166002900480601f0160208091040260200160405190810160405280929190818152602001828054600181600116156101000203166002900480156105b85780601f1061058d576101008083540402835291602001916105b8565b820191906000526020600020905b81548152906001019060200180831161059b57829003601f168201915b50505050509250818054600181600116156101000203166002900480601f0160208091040260200160405190810160405280929190818152602001828054600181600116156101000203166002900480156106545780601f1061062957610100808354040283529160200191610654565b820191906000526020600020905b81548152906001019060200180831161063757829003601f168201915b50505050509150808054600181600116156101000203166002900480601f0160208091040260200160405190810160405280929190818152602001828054600181600116156101000203166002900480156106f05780601f106106c5576101008083540402835291602001916106f0565b820191906000526020600020905b8154815290600101906020018083116106d357829003601f168201915b505050505090509250925092509193909250565b600080905090565b6000825111801561071e575060008151115b1515610792576040517f08c379a00000000000000000000000000000000000000000000000000000000081526004018080602001828103825260108152602001807f496c6c6567616c2052656769737465720000000000000000000000000000000081525060200191505060405180910390fd5b60606040519081016040528083815260200182815260200160206040519081016040528060008152508152506000803373ffffffffffffffffffffffffffffffffffffffff1673ffffffffffffffffffffffffffffffffffffffff1681526020019081526020016000206000820151816000019080519060200190610818929190610979565b506020820151816001019080519060200190610835929190610979565b506040820151816002019080519060200190610852929190610979565b509050507fa44804ddff8f1ee1b2c8ef9fc4a0f12a680dc5fe9ffeab08e97b44f19ed52ecd33604051808273ffffffffffffffffffffffffffffffffffffffff1673ffffffffffffffffffffffffffffffffffffffff16815260200191505060405180910390a15050565b806000803373ffffffffffffffffffffffffffffffffffffffff1673ffffffffffffffffffffffffffffffffffffffff16815260200190815260200160002060020190805190602001906109129291906109f9565b507f28eedb35edc8b7fbd4c0d971f88e80f97ffb270d12c7076dfca720dbe864dc7e33604051808273ffffffffffffffffffffffffffffffffffffffff1673ffffffffffffffffffffffffffffffffffffffff16815260200191505060405180910390a150565b828054600181600116156101000203166002900490600052602060002090601f016020900481019282601f106109ba57805160ff19168380011785556109e8565b828001600101855582156109e8579182015b828111156109e75782518255916020019190600101906109cc565b5b5090506109f59190610a79565b5090565b828054600181600116156101000203166002900490600052602060002090601f016020900481019282601f10610a3a57805160ff1916838001178555610a68565b82800160010185558215610a68579182015b82811115610a67578251825591602001919060010190610a4c565b5b509050610a759190610a79565b5090565b610a9b91905b80821115610a97576000816000905550600101610a7f565b5090565b9056fea165627a7a72305820b023d577fe7cfae1f6fdff49e8af3bf8e2116fee7ea414dc1a1d02b26e960f740029",
  "source": "pragma solidity ^0.5.0;\r\n// pragma experimental ABIEncoderV2;\r\n\r\ncontract DPKI {\r\n    \r\n    enum Status { Waiting, Registered }\r\n    \r\n    struct Identity {\r\n        string no;\r\n        string pubkey;\r\n        string DIDHash;\r\n    }\r\n    \r\n    mapping (address => Identity) identities;\r\n    \r\n    event AddedIdentity(address addr);\r\n    event AddedDIDHash(address addr);\r\n    \r\n    function addIdentity(string memory _no, string memory _pubkey) public {\r\n        require(\r\n            bytes(_no).length > 0 &&\r\n            bytes(_pubkey).length > 0, \r\n            \"Illegal Register\"\r\n        );\r\n        \r\n        identities[msg.sender] = Identity(\r\n            _no,\r\n            _pubkey,\r\n            \"\"\r\n        );\r\n        \r\n        emit AddedIdentity(msg.sender);\r\n    }\r\n    \r\n    function saveDIDHash(string memory _fileHash) public {\r\n        identities[msg.sender].DIDHash = _fileHash;\r\n        emit AddedDIDHash(msg.sender);\r\n    }\r\n\r\n    function getIdentity(address _addr) public view returns (string memory, string memory, string memory) {\r\n        return (\r\n            identities[_addr].no,\r\n            identities[_addr].pubkey,\r\n            identities[_addr].DIDHash\r\n        );\r\n    }\r\n    \r\n    function getIdentityNumber() public pure returns (uint) {\r\n        return 0;\r\n    }\r\n    \r\n}\r\n",
  "sourcePath": "E:/Projects/dkpi-prototype/contracts/DPKI.sol",
  "compiler": {
    "name": "solc",
    "version": "0.5.0+commit.1d4f565a.Emscripten.clang"
  },
  "schemaVersion": "3.0.3",
  "updatedAt": "2019-04-19T06:11:56.267Z",
  "devdoc": {
    "methods": {}
  },
  "userdoc": {
    "methods": {}
  }
}