{
  "contractName": "DPKI",
  "abi": [
    {
      "anonymous": false,
      "inputs": [
        {
          "indexed": false,
          "name": "addr",
          "type": "address"
        }
      ],
      "name": "AddedIdentity",
      "type": "event"
    },
    {
      "anonymous": false,
      "inputs": [
        {
          "indexed": false,
          "name": "signee",
          "type": "address"
        },
        {
          "indexed": false,
          "name": "signer",
          "type": "address"
        }
      ],
      "name": "AddedSigner",
      "type": "event"
    },
    {
      "anonymous": false,
      "inputs": [
        {
          "indexed": false,
          "name": "signer",
          "type": "address"
        },
        {
          "indexed": false,
          "name": "signee",
          "type": "address"
        }
      ],
      "name": "SignedIdentity",
      "type": "event"
    },
    {
      "constant": false,
      "inputs": [
        {
          "name": "_ipAddr",
          "type": "string"
        },
        {
          "name": "_pubkey",
          "type": "string"
        }
      ],
      "name": "addIdentity",
      "outputs": [],
      "payable": false,
      "stateMutability": "nonpayable",
      "type": "function"
    },
    {
      "constant": false,
      "inputs": [],
      "name": "emitAddedIdentity",
      "outputs": [],
      "payable": false,
      "stateMutability": "nonpayable",
      "type": "function"
    },
    {
      "constant": false,
      "inputs": [
        {
          "name": "_signee",
          "type": "address"
        }
      ],
      "name": "addSigner",
      "outputs": [],
      "payable": false,
      "stateMutability": "nonpayable",
      "type": "function"
    },
    {
      "constant": false,
      "inputs": [
        {
          "name": "_signee",
          "type": "address"
        },
        {
          "name": "_fileHash",
          "type": "string"
        }
      ],
      "name": "saveCertFileHash",
      "outputs": [],
      "payable": false,
      "stateMutability": "nonpayable",
      "type": "function"
    },
    {
      "constant": true,
      "inputs": [
        {
          "name": "_addr",
          "type": "address"
        }
      ],
      "name": "getIdentity",
      "outputs": [
        {
          "name": "",
          "type": "uint256"
        },
        {
          "name": "",
          "type": "string"
        },
        {
          "name": "",
          "type": "string"
        },
        {
          "name": "",
          "type": "address"
        },
        {
          "name": "",
          "type": "string"
        }
      ],
      "payable": false,
      "stateMutability": "view",
      "type": "function"
    },
    {
      "constant": true,
      "inputs": [],
      "name": "getIdentityNumber",
      "outputs": [
        {
          "name": "",
          "type": "uint256"
        }
      ],
      "payable": false,
      "stateMutability": "view",
      "type": "function"
    }
  ],
  "bytecode": "0x608060405234801561001057600080fd5b506116a8806100206000396000f3fe608060405260043610610078576000357c0100000000000000000000000000000000000000000000000000000000900463ffffffff1680632fea7b811461007d57806349f4298f146102595780637a7607f514610270578063b64272101461029b578063b648f4cd146103fa578063eb12d61e146104e2575b600080fd5b34801561008957600080fd5b506100cc600480360360208110156100a057600080fd5b81019080803573ffffffffffffffffffffffffffffffffffffffff169060200190929190505050610533565b6040518086815260200180602001806020018573ffffffffffffffffffffffffffffffffffffffff1673ffffffffffffffffffffffffffffffffffffffff16815260200180602001848103845288818151815260200191508051906020019080838360005b8381101561014c578082015181840152602081019050610131565b50505050905090810190601f1680156101795780820380516001836020036101000a031916815260200191505b50848103835287818151815260200191508051906020019080838360005b838110156101b2578082015181840152602081019050610197565b50505050905090810190601f1680156101df5780820380516001836020036101000a031916815260200191505b50848103825285818151815260200191508051906020019080838360005b838110156102185780820151818401526020810190506101fd565b50505050905090810190601f1680156102455780820380516001836020036101000a031916815260200191505b509850505050505050505060405180910390f35b34801561026557600080fd5b5061026e610944565b005b34801561027c57600080fd5b50610285610a45565b6040518082815260200191505060405180910390f35b3480156102a757600080fd5b506103f8600480360360408110156102be57600080fd5b81019080803590602001906401000000008111156102db57600080fd5b8201836020820111156102ed57600080fd5b8035906020019184600183028401116401000000008311171561030f57600080fd5b91908080601f016020809104026020016040519081016040528093929190818152602001838380828437600081840152601f19601f8201169050808301925050505050505091929192908035906020019064010000000081111561037257600080fd5b82018360208201111561038457600080fd5b803590602001918460018302840111640100000000831117156103a657600080fd5b91908080601f016020809104026020016040519081016040528093929190818152602001838380828437600081840152601f19601f820116905080830192505050505050509192919290505050610a4f565b005b34801561040657600080fd5b506104e06004803603604081101561041d57600080fd5b81019080803573ffffffffffffffffffffffffffffffffffffffff1690602001909291908035906020019064010000000081111561045a57600080fd5b82018360208201111561046c57600080fd5b8035906020019184600183028401116401000000008311171561048e57600080fd5b91908080601f016020809104026020016040519081016040528093929190818152602001838380828437600081840152601f19601f820116905080830192505050505050509192919290505050610dac565b005b3480156104ee57600080fd5b506105316004803603602081101561050557600080fd5b81019080803573ffffffffffffffffffffffffffffffffffffffff1690602001909291905050506112d7565b005b60006060806000606060008060008873ffffffffffffffffffffffffffffffffffffffff1673ffffffffffffffffffffffffffffffffffffffff16815260200190815260200160002060000154101515156105f6576040517f08c379a00000000000000000000000000000000000000000000000000000000081526004018080602001828103825260208152602001807f54686973204164647265737320486173204e6f204964656e746974792059657481525060200191505060405180910390fd5b6000808773ffffffffffffffffffffffffffffffffffffffff1673ffffffffffffffffffffffffffffffffffffffff168152602001908152602001600020600001546000808873ffffffffffffffffffffffffffffffffffffffff1673ffffffffffffffffffffffffffffffffffffffff1681526020019081526020016000206001016000808973ffffffffffffffffffffffffffffffffffffffff1673ffffffffffffffffffffffffffffffffffffffff1681526020019081526020016000206002016000808a73ffffffffffffffffffffffffffffffffffffffff1673ffffffffffffffffffffffffffffffffffffffff16815260200190815260200160002060030160009054906101000a900473ffffffffffffffffffffffffffffffffffffffff166000808b73ffffffffffffffffffffffffffffffffffffffff1673ffffffffffffffffffffffffffffffffffffffff168152602001908152602001600020600401838054600181600116156101000203166002900480601f0160208091040260200160405190810160405280929190818152602001828054600181600116156101000203166002900480156107f25780601f106107c7576101008083540402835291602001916107f2565b820191906000526020600020905b8154815290600101906020018083116107d557829003601f168201915b50505050509350828054600181600116156101000203166002900480601f01602080910402602001604051908101604052809291908181526020018280546001816001161561010002031660029004801561088e5780601f106108635761010080835404028352916020019161088e565b820191906000526020600020905b81548152906001019060200180831161087157829003601f168201915b50505050509250808054600181600116156101000203166002900480601f01602080910402602001604051908101604052809291908181526020018280546001816001161561010002031660029004801561092a5780601f106108ff5761010080835404028352916020019161092a565b820191906000526020600020905b81548152906001019060200180831161090d57829003601f168201915b505050505090509450945094509450945091939590929450565b600073ffffffffffffffffffffffffffffffffffffffff166000803373ffffffffffffffffffffffffffffffffffffffff1673ffffffffffffffffffffffffffffffffffffffff16815260200190815260200160002060030160009054906101000a900473ffffffffffffffffffffffffffffffffffffffff1673ffffffffffffffffffffffffffffffffffffffff161415156109e057600080fd5b7fa44804ddff8f1ee1b2c8ef9fc4a0f12a680dc5fe9ffeab08e97b44f19ed52ecd33604051808273ffffffffffffffffffffffffffffffffffffffff1673ffffffffffffffffffffffffffffffffffffffff16815260200191505060405180910390a1565b6000600254905090565b60008251118015610a61575060008151115b8015610ac2575060008060003373ffffffffffffffffffffffffffffffffffffffff1673ffffffffffffffffffffffffffffffffffffffff168152602001908152602001600020600101805460018160011615610100020316600290049050145b8015610b855750600073ffffffffffffffffffffffffffffffffffffffff166001836040518082805190602001908083835b602083101515610b195780518252602082019150602081019050602083039250610af4565b6001836020036101000a038019825116818451168082178552505050505050905001915050908152602001604051809103902060009054906101000a900473ffffffffffffffffffffffffffffffffffffffff1673ffffffffffffffffffffffffffffffffffffffff16145b1515610bf9576040517f08c379a00000000000000000000000000000000000000000000000000000000081526004018080602001828103825260108152602001807f496c6c6567616c2052656769737465720000000000000000000000000000000081525060200191505060405180910390fd5b60a0604051908101604052806002548152602001838152602001828152602001600073ffffffffffffffffffffffffffffffffffffffff16815260200160206040519081016040528060008152508152506000803373ffffffffffffffffffffffffffffffffffffffff1673ffffffffffffffffffffffffffffffffffffffff168152602001908152602001600020600082015181600001556020820151816001019080519060200190610cae929190611557565b506040820151816002019080519060200190610ccb929190611557565b5060608201518160030160006101000a81548173ffffffffffffffffffffffffffffffffffffffff021916908373ffffffffffffffffffffffffffffffffffffffff1602179055506080820151816004019080519060200190610d2f929190611557565b509050506002600081548092919060010191905055507fa44804ddff8f1ee1b2c8ef9fc4a0f12a680dc5fe9ffeab08e97b44f19ed52ecd33604051808273ffffffffffffffffffffffffffffffffffffffff1673ffffffffffffffffffffffffffffffffffffffff16815260200191505060405180910390a15050565b3373ffffffffffffffffffffffffffffffffffffffff166000808473ffffffffffffffffffffffffffffffffffffffff1673ffffffffffffffffffffffffffffffffffffffff16815260200190815260200160002060030160009054906101000a900473ffffffffffffffffffffffffffffffffffffffff1673ffffffffffffffffffffffffffffffffffffffff16148015610e7457508173ffffffffffffffffffffffffffffffffffffffff163373ffffffffffffffffffffffffffffffffffffffff1614155b8015610ed5575060008060003373ffffffffffffffffffffffffffffffffffffffff1673ffffffffffffffffffffffffffffffffffffffff168152602001908152602001600020600101805460018160011615610100020316600290049050115b8015610f36575060008060003373ffffffffffffffffffffffffffffffffffffffff1673ffffffffffffffffffffffffffffffffffffffff168152602001908152602001600020600201805460018160011615610100020316600290049050115b8015610f97575060008060008473ffffffffffffffffffffffffffffffffffffffff1673ffffffffffffffffffffffffffffffffffffffff168152602001908152602001600020600101805460018160011615610100020316600290049050115b8015610ff8575060008060008473ffffffffffffffffffffffffffffffffffffffff1673ffffffffffffffffffffffffffffffffffffffff168152602001908152602001600020600201805460018160011615610100020316600290049050115b80156110915750600073ffffffffffffffffffffffffffffffffffffffff166000808473ffffffffffffffffffffffffffffffffffffffff1673ffffffffffffffffffffffffffffffffffffffff16815260200190815260200160002060030160009054906101000a900473ffffffffffffffffffffffffffffffffffffffff1673ffffffffffffffffffffffffffffffffffffffff16145b80156110f2575060008060008473ffffffffffffffffffffffffffffffffffffffff1673ffffffffffffffffffffffffffffffffffffffff168152602001908152602001600020600401805460018160011615610100020316600290049050145b1515611166576040517f08c379a00000000000000000000000000000000000000000000000000000000081526004018080602001828103825260198152602001807f496c6c6567616c205369676e61747572652050726f636573730000000000000081525060200191505060405180910390fd5b336000808473ffffffffffffffffffffffffffffffffffffffff1673ffffffffffffffffffffffffffffffffffffffff16815260200190815260200160002060030160006101000a81548173ffffffffffffffffffffffffffffffffffffffff021916908373ffffffffffffffffffffffffffffffffffffffff160217905550806000808473ffffffffffffffffffffffffffffffffffffffff1673ffffffffffffffffffffffffffffffffffffffff168152602001908152602001600020600401908051906020019061123b9291906115d7565b507f5e6d5db3810743cbe381d0f50a6aa773c9558c11ab0ea1862e9fafd1dad1f1153383604051808373ffffffffffffffffffffffffffffffffffffffff1673ffffffffffffffffffffffffffffffffffffffff1681526020018273ffffffffffffffffffffffffffffffffffffffff1673ffffffffffffffffffffffffffffffffffffffff1681526020019250505060405180910390a15050565b600073ffffffffffffffffffffffffffffffffffffffff166000808373ffffffffffffffffffffffffffffffffffffffff1673ffffffffffffffffffffffffffffffffffffffff16815260200190815260200160002060030160009054906101000a900473ffffffffffffffffffffffffffffffffffffffff1673ffffffffffffffffffffffffffffffffffffffff161480156113c9575060008060008373ffffffffffffffffffffffffffffffffffffffff1673ffffffffffffffffffffffffffffffffffffffff168152602001908152602001600020600401805460018160011615610100020316600290049050145b151561143d576040517f08c379a000000000000000000000000000000000000000000000000000000000815260040180806020018281038252601d8152602001807f54686973206964656e7469747920686173206265656e207369676e656400000081525060200191505060405180910390fd5b336000808373ffffffffffffffffffffffffffffffffffffffff1673ffffffffffffffffffffffffffffffffffffffff16815260200190815260200160002060030160006101000a81548173ffffffffffffffffffffffffffffffffffffffff021916908373ffffffffffffffffffffffffffffffffffffffff1602179055507f05c1409cc15c342fda5d547189b22d4c0712ed35dc687a8ab325eaf697f01eb78133604051808373ffffffffffffffffffffffffffffffffffffffff1673ffffffffffffffffffffffffffffffffffffffff1681526020018273ffffffffffffffffffffffffffffffffffffffff1673ffffffffffffffffffffffffffffffffffffffff1681526020019250505060405180910390a150565b828054600181600116156101000203166002900490600052602060002090601f016020900481019282601f1061159857805160ff19168380011785556115c6565b828001600101855582156115c6579182015b828111156115c55782518255916020019190600101906115aa565b5b5090506115d39190611657565b5090565b828054600181600116156101000203166002900490600052602060002090601f016020900481019282601f1061161857805160ff1916838001178555611646565b82800160010185558215611646579182015b8281111561164557825182559160200191906001019061162a565b5b5090506116539190611657565b5090565b61167991905b8082111561167557600081600090555060010161165d565b5090565b9056fea165627a7a723058201a3f1f967e0a7ed617068aba156bd62985f6c1514094480156cb6904607544840029",
  "source": "pragma solidity ^0.5.0;\r\n// pragma experimental ABIEncoderV2;\r\n\r\ncontract DPKI {\r\n    \r\n    enum Status { Waiting, Registered }\r\n    \r\n    struct Identity {\r\n        uint no;\r\n        string ipAddr;\r\n        string pubkey;\r\n        address signer;\r\n        string certFileHash;\r\n    }\r\n    \r\n    mapping (address => Identity) identities;\r\n    mapping (string => address) ipAddresses;\r\n    \r\n    uint identityNumber;\r\n    \r\n    event AddedIdentity(address addr);\r\n    event AddedSigner(address signee, address signer);\r\n    event SignedIdentity(address signer, address signee);\r\n    // event SavedIdentityCertFile(address owner, string filehash);\r\n    // event UpdateIdentityInfo(address owner, string infoName, string newValue, string certFileHash);\r\n    \r\n    function addIdentity(string memory _ipAddr, string memory _pubkey) public {\r\n        require(\r\n            bytes(_ipAddr).length > 0 &&\r\n            bytes(_pubkey).length > 0 &&\r\n            bytes(identities[msg.sender].ipAddr).length == 0 &&\r\n            ipAddresses[_ipAddr] == address(0), \r\n            \"Illegal Register\"\r\n        );\r\n        \r\n        identities[msg.sender] = Identity(\r\n            identityNumber,\r\n            _ipAddr,\r\n            _pubkey,\r\n            address(0),\r\n            \"\"\r\n        );\r\n        \r\n        identityNumber++;\r\n        \r\n        emit AddedIdentity(msg.sender);\r\n    }\r\n    \r\n    function emitAddedIdentity() public {\r\n        require(\r\n            identities[msg.sender].signer == address(0)\r\n        );\r\n        emit AddedIdentity(msg.sender);\r\n    }\r\n    \r\n    function addSigner(address _signee) public {\r\n        require(\r\n            identities[_signee].signer == address(0) &&\r\n            bytes(identities[_signee].certFileHash).length == 0,\r\n            \"This identity has been signed\"\r\n        );\r\n        \r\n        identities[_signee].signer = msg.sender;\r\n        \r\n        emit AddedSigner(_signee, msg.sender);\r\n    }\r\n    \r\n    function saveCertFileHash(address _signee, string memory _fileHash) public {\r\n        require(\r\n            identities[_signee].signer == msg.sender &&\r\n            msg.sender != _signee &&\r\n            bytes(identities[msg.sender].ipAddr).length > 0 &&\r\n            bytes(identities[msg.sender].pubkey).length > 0 &&\r\n            bytes(identities[_signee].ipAddr).length > 0 &&\r\n            bytes(identities[_signee].pubkey).length > 0 &&\r\n            identities[_signee].signer == address(0) &&\r\n            bytes(identities[_signee].certFileHash).length == 0,\r\n            \"Illegal Signature Process\"\r\n        );\r\n        \r\n        identities[_signee].signer = msg.sender;\r\n        identities[_signee].certFileHash = _fileHash;\r\n        \r\n        emit SignedIdentity(msg.sender, _signee);\r\n    }\r\n    \r\n    // function saveCertFileHash(string memory _fileHash) public {\r\n    //     require(\r\n    //         bytes(identities[msg.sender].certFileHash).length == 0,\r\n    //         \"You Have Owned A Certificate Already\"\r\n    //     );\r\n        \r\n    //     identities[msg.sender].certFileHash = _fileHash;\r\n        \r\n    //     emit SavedIdentityCertFile(msg.sender, _fileHash);\r\n    // }\r\n\r\n    function getIdentity(address _addr) public view returns (uint, string memory, string memory, address, string memory) {\r\n        require(identities[_addr].no >= 0, \"This Address Has No Identity Yet\");\r\n\r\n        return (\r\n            identities[_addr].no,\r\n            identities[_addr].ipAddr,\r\n            identities[_addr].pubkey,\r\n            identities[_addr].signer,\r\n            identities[_addr].certFileHash\r\n        );\r\n    }\r\n    \r\n    function getIdentityNumber() public view returns (uint) {\r\n        return identityNumber;\r\n    }\r\n    \r\n}\r\n",
  "sourcePath": "H:/projects/dkpi-prototype/contracts/DPKI.sol",
  "compiler": {
    "name": "solc",
    "version": "0.5.0+commit.1d4f565a.Emscripten.clang"
  },
  "schemaVersion": "3.0.3",
  "updatedAt": "2019-04-11T05:26:23.336Z",
  "devdoc": {
    "methods": {}
  },
  "userdoc": {
    "methods": {}
  }
}