{
  "contractName": "DPKI",
  "abi": [
    {
      "anonymous": false,
      "inputs": [
        {
          "indexed": false,
          "name": "addr",
          "type": "address"
        }
      ],
      "name": "AddedIdentity",
      "type": "event"
    },
    {
      "anonymous": false,
      "inputs": [
        {
          "indexed": false,
          "name": "signer",
          "type": "address"
        },
        {
          "indexed": false,
          "name": "signee",
          "type": "address"
        }
      ],
      "name": "SignedIdentity",
      "type": "event"
    },
    {
      "anonymous": false,
      "inputs": [
        {
          "indexed": false,
          "name": "owner",
          "type": "address"
        },
        {
          "indexed": false,
          "name": "filehash",
          "type": "string"
        }
      ],
      "name": "SavedIdentityCertFile",
      "type": "event"
    },
    {
      "anonymous": false,
      "inputs": [
        {
          "indexed": false,
          "name": "owner",
          "type": "address"
        },
        {
          "indexed": false,
          "name": "infoName",
          "type": "string"
        },
        {
          "indexed": false,
          "name": "newValue",
          "type": "string"
        },
        {
          "indexed": false,
          "name": "certFileHash",
          "type": "string"
        }
      ],
      "name": "UpdateIdentityInfo",
      "type": "event"
    },
    {
      "constant": false,
      "inputs": [
        {
          "name": "_ipAddr",
          "type": "string"
        },
        {
          "name": "_pubkey",
          "type": "string"
        }
      ],
      "name": "addIdentity",
      "outputs": [],
      "payable": false,
      "stateMutability": "nonpayable",
      "type": "function"
    },
    {
      "constant": false,
      "inputs": [
        {
          "name": "_signee",
          "type": "address"
        },
        {
          "name": "_signature",
          "type": "string"
        }
      ],
      "name": "signIdentity",
      "outputs": [],
      "payable": false,
      "stateMutability": "nonpayable",
      "type": "function"
    },
    {
      "constant": false,
      "inputs": [
        {
          "name": "_fileHash",
          "type": "string"
        }
      ],
      "name": "saveCertFileHash",
      "outputs": [],
      "payable": false,
      "stateMutability": "nonpayable",
      "type": "function"
    },
    {
      "constant": true,
      "inputs": [
        {
          "name": "_addr",
          "type": "address"
        }
      ],
      "name": "getIdentity",
      "outputs": [
        {
          "name": "",
          "type": "uint256"
        },
        {
          "name": "",
          "type": "string"
        },
        {
          "name": "",
          "type": "string"
        },
        {
          "name": "",
          "type": "string"
        },
        {
          "name": "",
          "type": "address"
        },
        {
          "name": "",
          "type": "string"
        }
      ],
      "payable": false,
      "stateMutability": "view",
      "type": "function"
    },
    {
      "constant": true,
      "inputs": [],
      "name": "getIdentityNumber",
      "outputs": [
        {
          "name": "",
          "type": "uint256"
        }
      ],
      "payable": false,
      "stateMutability": "view",
      "type": "function"
    }
  ],
  "bytecode": "0x608060405234801561001057600080fd5b5061150f806100206000396000f3fe60806040526004361061006d576000357c0100000000000000000000000000000000000000000000000000000000900463ffffffff1680631f8f1117146100725780632fea7b811461015a57806331a46f20146103a25780637a7607f51461046a578063b642721014610495575b600080fd5b34801561007e57600080fd5b506101586004803603604081101561009557600080fd5b81019080803573ffffffffffffffffffffffffffffffffffffffff169060200190929190803590602001906401000000008111156100d257600080fd5b8201836020820111156100e457600080fd5b8035906020019184600183028401116401000000008311171561010657600080fd5b91908080601f016020809104026020016040519081016040528093929190818152602001838380828437600081840152601f19601f8201169050808301925050505050505091929192905050506105f4565b005b34801561016657600080fd5b506101a96004803603602081101561017d57600080fd5b81019080803573ffffffffffffffffffffffffffffffffffffffff169060200190929190505050610916565b604051808781526020018060200180602001806020018673ffffffffffffffffffffffffffffffffffffffff1673ffffffffffffffffffffffffffffffffffffffff1681526020018060200185810385528a818151815260200191508051906020019080838360005b8381101561022d578082015181840152602081019050610212565b50505050905090810190601f16801561025a5780820380516001836020036101000a031916815260200191505b50858103845289818151815260200191508051906020019080838360005b83811015610293578082015181840152602081019050610278565b50505050905090810190601f1680156102c05780820380516001836020036101000a031916815260200191505b50858103835288818151815260200191508051906020019080838360005b838110156102f95780820151818401526020810190506102de565b50505050905090810190601f1680156103265780820380516001836020036101000a031916815260200191505b50858103825286818151815260200191508051906020019080838360005b8381101561035f578082015181840152602081019050610344565b50505050905090810190601f16801561038c5780820380516001836020036101000a031916815260200191505b509a505050505050505050505060405180910390f35b3480156103ae57600080fd5b50610468600480360360208110156103c557600080fd5b81019080803590602001906401000000008111156103e257600080fd5b8201836020820111156103f457600080fd5b8035906020019184600183028401116401000000008311171561041657600080fd5b91908080601f016020809104026020016040519081016040528093929190818152602001838380828437600081840152601f19601f820116905080830192505050505050509192919290505050610e08565b005b34801561047657600080fd5b5061047f611024565b6040518082815260200191505060405180910390f35b3480156104a157600080fd5b506105f2600480360360408110156104b857600080fd5b81019080803590602001906401000000008111156104d557600080fd5b8201836020820111156104e757600080fd5b8035906020019184600183028401116401000000008311171561050957600080fd5b91908080601f016020809104026020016040519081016040528093929190818152602001838380828437600081840152601f19601f8201169050808301925050505050505091929192908035906020019064010000000081111561056c57600080fd5b82018360208201111561057e57600080fd5b803590602001918460018302840111640100000000831117156105a057600080fd5b91908080601f016020809104026020016040519081016040528093929190818152602001838380828437600081840152601f19601f82011690508083019250505050505050919291929050505061102e565b005b60008060003373ffffffffffffffffffffffffffffffffffffffff1673ffffffffffffffffffffffffffffffffffffffff1681526020019081526020016000206003018054600181600116156101000203166002900490501180156106ae575060008060008473ffffffffffffffffffffffffffffffffffffffff1673ffffffffffffffffffffffffffffffffffffffff168152602001908152602001600020600301805460018160011615610100020316600290049050145b80610731575060008060003373ffffffffffffffffffffffffffffffffffffffff1673ffffffffffffffffffffffffffffffffffffffff1681526020019081526020016000206000015414801561073057508173ffffffffffffffffffffffffffffffffffffffff163373ffffffffffffffffffffffffffffffffffffffff16145b5b15156107a5576040517f08c379a00000000000000000000000000000000000000000000000000000000081526004018080602001828103825260198152602001807f496c6c6567616c205369676e61747572652050726f636573730000000000000081525060200191505060405180910390fd5b336000808473ffffffffffffffffffffffffffffffffffffffff1673ffffffffffffffffffffffffffffffffffffffff16815260200190815260200160002060040160006101000a81548173ffffffffffffffffffffffffffffffffffffffff021916908373ffffffffffffffffffffffffffffffffffffffff160217905550806000808473ffffffffffffffffffffffffffffffffffffffff1673ffffffffffffffffffffffffffffffffffffffff168152602001908152602001600020600301908051906020019061087a9291906113be565b507f5e6d5db3810743cbe381d0f50a6aa773c9558c11ab0ea1862e9fafd1dad1f1153383604051808373ffffffffffffffffffffffffffffffffffffffff1673ffffffffffffffffffffffffffffffffffffffff1681526020018273ffffffffffffffffffffffffffffffffffffffff1673ffffffffffffffffffffffffffffffffffffffff1681526020019250505060405180910390a15050565b600060608060606000606060008060008973ffffffffffffffffffffffffffffffffffffffff1673ffffffffffffffffffffffffffffffffffffffff16815260200190815260200160002060000154101515156109db576040517f08c379a00000000000000000000000000000000000000000000000000000000081526004018080602001828103825260208152602001807f54686973204164647265737320486173204e6f204964656e746974792059657481525060200191505060405180910390fd5b6000808873ffffffffffffffffffffffffffffffffffffffff1673ffffffffffffffffffffffffffffffffffffffff168152602001908152602001600020600001546000808973ffffffffffffffffffffffffffffffffffffffff1673ffffffffffffffffffffffffffffffffffffffff1681526020019081526020016000206001016000808a73ffffffffffffffffffffffffffffffffffffffff1673ffffffffffffffffffffffffffffffffffffffff1681526020019081526020016000206002016000808b73ffffffffffffffffffffffffffffffffffffffff1673ffffffffffffffffffffffffffffffffffffffff1681526020019081526020016000206003016000808c73ffffffffffffffffffffffffffffffffffffffff1673ffffffffffffffffffffffffffffffffffffffff16815260200190815260200160002060040160009054906101000a900473ffffffffffffffffffffffffffffffffffffffff166000808d73ffffffffffffffffffffffffffffffffffffffff1673ffffffffffffffffffffffffffffffffffffffff168152602001908152602001600020600501848054600181600116156101000203166002900480601f016020809104026020016040519081016040528092919081815260200182805460018160011615610100020316600290048015610c185780601f10610bed57610100808354040283529160200191610c18565b820191906000526020600020905b815481529060010190602001808311610bfb57829003601f168201915b50505050509450838054600181600116156101000203166002900480601f016020809104026020016040519081016040528092919081815260200182805460018160011615610100020316600290048015610cb45780601f10610c8957610100808354040283529160200191610cb4565b820191906000526020600020905b815481529060010190602001808311610c9757829003601f168201915b50505050509350828054600181600116156101000203166002900480601f016020809104026020016040519081016040528092919081815260200182805460018160011615610100020316600290048015610d505780601f10610d2557610100808354040283529160200191610d50565b820191906000526020600020905b815481529060010190602001808311610d3357829003601f168201915b50505050509250808054600181600116156101000203166002900480601f016020809104026020016040519081016040528092919081815260200182805460018160011615610100020316600290048015610dec5780601f10610dc157610100808354040283529160200191610dec565b820191906000526020600020905b815481529060010190602001808311610dcf57829003601f168201915b5050505050905095509550955095509550955091939550919395565b60008060003373ffffffffffffffffffffffffffffffffffffffff1673ffffffffffffffffffffffffffffffffffffffff168152602001908152602001600020600501805460018160011615610100020316600290049050141515610efb576040517f08c379a00000000000000000000000000000000000000000000000000000000081526004018080602001828103825260248152602001807f596f752048617665204f776e6564204120436572746966696361746520416c7281526020017f656164790000000000000000000000000000000000000000000000000000000081525060400191505060405180910390fd5b806000803373ffffffffffffffffffffffffffffffffffffffff1673ffffffffffffffffffffffffffffffffffffffff1681526020019081526020016000206005019080519060200190610f509291906113be565b507f2623c9a6918755b1f0c92bc3790769f11c95f1babefe32d6d43fc575f41c32203382604051808373ffffffffffffffffffffffffffffffffffffffff1673ffffffffffffffffffffffffffffffffffffffff16815260200180602001828103825283818151815260200191508051906020019080838360005b83811015610fe6578082015181840152602081019050610fcb565b50505050905090810190601f1680156110135780820380516001836020036101000a031916815260200191505b50935050505060405180910390a150565b6000600254905090565b60008251118015611040575060008151115b80156110a1575060008060003373ffffffffffffffffffffffffffffffffffffffff1673ffffffffffffffffffffffffffffffffffffffff168152602001908152602001600020600101805460018160011615610100020316600290049050145b80156111645750600073ffffffffffffffffffffffffffffffffffffffff166001836040518082805190602001908083835b6020831015156110f857805182526020820191506020810190506020830392506110d3565b6001836020036101000a038019825116818451168082178552505050505050905001915050908152602001604051809103902060009054906101000a900473ffffffffffffffffffffffffffffffffffffffff1673ffffffffffffffffffffffffffffffffffffffff16145b15156111d8576040517f08c379a00000000000000000000000000000000000000000000000000000000081526004018080602001828103825260108152602001807f496c6c6567616c2052656769737465720000000000000000000000000000000081525060200191505060405180910390fd5b60c060405190810160405280600254815260200183815260200182815260200160206040519081016040528060008152508152602001600073ffffffffffffffffffffffffffffffffffffffff16815260200160206040519081016040528060008152508152506000803373ffffffffffffffffffffffffffffffffffffffff1673ffffffffffffffffffffffffffffffffffffffff1681526020019081526020016000206000820151816000015560208201518160010190805190602001906112a392919061143e565b5060408201518160020190805190602001906112c092919061143e565b5060608201518160030190805190602001906112dd92919061143e565b5060808201518160040160006101000a81548173ffffffffffffffffffffffffffffffffffffffff021916908373ffffffffffffffffffffffffffffffffffffffff16021790555060a082015181600501908051906020019061134192919061143e565b509050506002600081548092919060010191905055507fa44804ddff8f1ee1b2c8ef9fc4a0f12a680dc5fe9ffeab08e97b44f19ed52ecd33604051808273ffffffffffffffffffffffffffffffffffffffff1673ffffffffffffffffffffffffffffffffffffffff16815260200191505060405180910390a15050565b828054600181600116156101000203166002900490600052602060002090601f016020900481019282601f106113ff57805160ff191683800117855561142d565b8280016001018555821561142d579182015b8281111561142c578251825591602001919060010190611411565b5b50905061143a91906114be565b5090565b828054600181600116156101000203166002900490600052602060002090601f016020900481019282601f1061147f57805160ff19168380011785556114ad565b828001600101855582156114ad579182015b828111156114ac578251825591602001919060010190611491565b5b5090506114ba91906114be565b5090565b6114e091905b808211156114dc5760008160009055506001016114c4565b5090565b9056fea165627a7a72305820409f6016007660f03bf49db9c4f84219c4264bd89b41e003f22fb03b1dd3453c0029",
  "source": "pragma solidity ^0.5.0;\n// pragma experimental ABIEncoderV2;\n\ncontract DPKI {\n    \n    enum Status { Waiting, Registered }\n    \n    struct Identity {\n        uint no;\n        string ipAddr;\n        string pubkey;\n        string signature;\n        address signer;\n        string certFileHash;\n    }\n    \n    mapping (address => Identity) identities;\n    mapping (string => address) ipAddresses;\n    \n    uint identityNumber;\n    \n    event AddedIdentity(address addr);\n    event SignedIdentity(address signer, address signee);\n    event SavedIdentityCertFile(address owner, string filehash);\n    event UpdateIdentityInfo(address owner, string infoName, string newValue, string certFileHash);\n    \n    function addIdentity(string memory _ipAddr, string memory _pubkey) public {\n        require(\n            bytes(_ipAddr).length > 0 &&\n            bytes(_pubkey).length > 0 &&\n            bytes(identities[msg.sender].ipAddr).length == 0 &&\n            ipAddresses[_ipAddr] == address(0), \n            \"Illegal Register\"\n        );\n        \n        identities[msg.sender] = Identity(\n            identityNumber,\n            _ipAddr,\n            _pubkey,\n            \"\",\n            address(0),\n            \"\"\n        );\n        \n        identityNumber++;\n        \n        emit AddedIdentity(msg.sender);\n    }\n    \n    function signIdentity(address _signee, string memory _signature) public {\n        require(\n            bytes(identities[msg.sender].signature).length > 0 &&\n            bytes(identities[_signee].signature).length == 0 || \n            identities[msg.sender].no == 0 && \n            msg.sender == _signee,\n            \"Illegal Signature Process\"\n        );\n        \n        identities[_signee].signer = msg.sender;\n        identities[_signee].signature = _signature;\n        \n        emit SignedIdentity(msg.sender, _signee);\n    }\n    \n    function saveCertFileHash(string memory _fileHash) public {\n        require(\n            bytes(identities[msg.sender].certFileHash).length == 0,\n            \"You Have Owned A Certificate Already\"\n        );\n        \n        identities[msg.sender].certFileHash = _fileHash;\n        \n        emit SavedIdentityCertFile(msg.sender, _fileHash);\n    }\n\n    function getIdentity(address _addr) public view returns (uint, string memory, string memory, string memory, address, string memory) {\n        require(identities[_addr].no >= 0, \"This Address Has No Identity Yet\");\n\n        return (\n            identities[_addr].no,\n            identities[_addr].ipAddr,\n            identities[_addr].pubkey,\n            identities[_addr].signature,\n            identities[_addr].signer,\n            identities[_addr].certFileHash\n        );\n    }\n    \n    function getIdentityNumber() public view returns (uint) {\n        return identityNumber;\n    }\n    \n}\n",
  "sourcePath": "/home/peng/Documents/dkpi-prototype/contracts/DPKI.sol",
  "compiler": {
    "name": "solc",
    "version": "0.5.0+commit.1d4f565a.Emscripten.clang"
  },
  "schemaVersion": "3.0.3",
  "updatedAt": "2019-03-19T13:07:53.347Z",
  "devdoc": {
    "methods": {}
  },
  "userdoc": {
    "methods": {}
  }
}