{
  "contractName": "DPKI",
  "abi": [
    {
      "anonymous": false,
      "inputs": [
        {
          "indexed": false,
          "name": "addr",
          "type": "address"
        }
      ],
      "name": "AddedIdentity",
      "type": "event"
    },
    {
      "anonymous": false,
      "inputs": [
        {
          "indexed": false,
          "name": "signee",
          "type": "address"
        },
        {
          "indexed": false,
          "name": "signer",
          "type": "address"
        }
      ],
      "name": "AddedSigner",
      "type": "event"
    },
    {
      "anonymous": false,
      "inputs": [
        {
          "indexed": false,
          "name": "signer",
          "type": "address"
        },
        {
          "indexed": false,
          "name": "signee",
          "type": "address"
        }
      ],
      "name": "SignedIdentity",
      "type": "event"
    },
    {
      "constant": false,
      "inputs": [
        {
          "name": "_ipAddr",
          "type": "string"
        },
        {
          "name": "_pubkey",
          "type": "string"
        }
      ],
      "name": "addIdentity",
      "outputs": [],
      "payable": false,
      "stateMutability": "nonpayable",
      "type": "function"
    },
    {
      "constant": false,
      "inputs": [
        {
          "name": "_signee",
          "type": "address"
        }
      ],
      "name": "addSigner",
      "outputs": [],
      "payable": false,
      "stateMutability": "nonpayable",
      "type": "function"
    },
    {
      "constant": false,
      "inputs": [
        {
          "name": "_signee",
          "type": "address"
        },
        {
          "name": "_fileHash",
          "type": "string"
        }
      ],
      "name": "saveCertFileHash",
      "outputs": [],
      "payable": false,
      "stateMutability": "nonpayable",
      "type": "function"
    },
    {
      "constant": true,
      "inputs": [
        {
          "name": "_addr",
          "type": "address"
        }
      ],
      "name": "getIdentity",
      "outputs": [
        {
          "name": "",
          "type": "uint256"
        },
        {
          "name": "",
          "type": "string"
        },
        {
          "name": "",
          "type": "string"
        },
        {
          "name": "",
          "type": "address"
        },
        {
          "name": "",
          "type": "string"
        }
      ],
      "payable": false,
      "stateMutability": "view",
      "type": "function"
    },
    {
      "constant": true,
      "inputs": [],
      "name": "getIdentityNumber",
      "outputs": [
        {
          "name": "",
          "type": "uint256"
        }
      ],
      "payable": false,
      "stateMutability": "view",
      "type": "function"
    }
  ],
  "bytecode": "0x608060405234801561001057600080fd5b50611585806100206000396000f3fe60806040526004361061006d576000357c0100000000000000000000000000000000000000000000000000000000900463ffffffff1680632fea7b81146100725780637a7607f51461024e578063b642721014610279578063b648f4cd146103d8578063eb12d61e146104c0575b600080fd5b34801561007e57600080fd5b506100c16004803603602081101561009557600080fd5b81019080803573ffffffffffffffffffffffffffffffffffffffff169060200190929190505050610511565b6040518086815260200180602001806020018573ffffffffffffffffffffffffffffffffffffffff1673ffffffffffffffffffffffffffffffffffffffff16815260200180602001848103845288818151815260200191508051906020019080838360005b83811015610141578082015181840152602081019050610126565b50505050905090810190601f16801561016e5780820380516001836020036101000a031916815260200191505b50848103835287818151815260200191508051906020019080838360005b838110156101a757808201518184015260208101905061018c565b50505050905090810190601f1680156101d45780820380516001836020036101000a031916815260200191505b50848103825285818151815260200191508051906020019080838360005b8381101561020d5780820151818401526020810190506101f2565b50505050905090810190601f16801561023a5780820380516001836020036101000a031916815260200191505b509850505050505050505060405180910390f35b34801561025a57600080fd5b50610263610922565b6040518082815260200191505060405180910390f35b34801561028557600080fd5b506103d66004803603604081101561029c57600080fd5b81019080803590602001906401000000008111156102b957600080fd5b8201836020820111156102cb57600080fd5b803590602001918460018302840111640100000000831117156102ed57600080fd5b91908080601f016020809104026020016040519081016040528093929190818152602001838380828437600081840152601f19601f8201169050808301925050505050505091929192908035906020019064010000000081111561035057600080fd5b82018360208201111561036257600080fd5b8035906020019184600183028401116401000000008311171561038457600080fd5b91908080601f016020809104026020016040519081016040528093929190818152602001838380828437600081840152601f19601f82011690508083019250505050505050919291929050505061092c565b005b3480156103e457600080fd5b506104be600480360360408110156103fb57600080fd5b81019080803573ffffffffffffffffffffffffffffffffffffffff1690602001909291908035906020019064010000000081111561043857600080fd5b82018360208201111561044a57600080fd5b8035906020019184600183028401116401000000008311171561046c57600080fd5b91908080601f016020809104026020016040519081016040528093929190818152602001838380828437600081840152601f19601f820116905080830192505050505050509192919290505050610c89565b005b3480156104cc57600080fd5b5061050f600480360360208110156104e357600080fd5b81019080803573ffffffffffffffffffffffffffffffffffffffff1690602001909291905050506111b4565b005b60006060806000606060008060008873ffffffffffffffffffffffffffffffffffffffff1673ffffffffffffffffffffffffffffffffffffffff16815260200190815260200160002060000154101515156105d4576040517f08c379a00000000000000000000000000000000000000000000000000000000081526004018080602001828103825260208152602001807f54686973204164647265737320486173204e6f204964656e746974792059657481525060200191505060405180910390fd5b6000808773ffffffffffffffffffffffffffffffffffffffff1673ffffffffffffffffffffffffffffffffffffffff168152602001908152602001600020600001546000808873ffffffffffffffffffffffffffffffffffffffff1673ffffffffffffffffffffffffffffffffffffffff1681526020019081526020016000206001016000808973ffffffffffffffffffffffffffffffffffffffff1673ffffffffffffffffffffffffffffffffffffffff1681526020019081526020016000206002016000808a73ffffffffffffffffffffffffffffffffffffffff1673ffffffffffffffffffffffffffffffffffffffff16815260200190815260200160002060030160009054906101000a900473ffffffffffffffffffffffffffffffffffffffff166000808b73ffffffffffffffffffffffffffffffffffffffff1673ffffffffffffffffffffffffffffffffffffffff168152602001908152602001600020600401838054600181600116156101000203166002900480601f0160208091040260200160405190810160405280929190818152602001828054600181600116156101000203166002900480156107d05780601f106107a5576101008083540402835291602001916107d0565b820191906000526020600020905b8154815290600101906020018083116107b357829003601f168201915b50505050509350828054600181600116156101000203166002900480601f01602080910402602001604051908101604052809291908181526020018280546001816001161561010002031660029004801561086c5780601f106108415761010080835404028352916020019161086c565b820191906000526020600020905b81548152906001019060200180831161084f57829003601f168201915b50505050509250808054600181600116156101000203166002900480601f0160208091040260200160405190810160405280929190818152602001828054600181600116156101000203166002900480156109085780601f106108dd57610100808354040283529160200191610908565b820191906000526020600020905b8154815290600101906020018083116108eb57829003601f168201915b505050505090509450945094509450945091939590929450565b6000600254905090565b6000825111801561093e575060008151115b801561099f575060008060003373ffffffffffffffffffffffffffffffffffffffff1673ffffffffffffffffffffffffffffffffffffffff168152602001908152602001600020600101805460018160011615610100020316600290049050145b8015610a625750600073ffffffffffffffffffffffffffffffffffffffff166001836040518082805190602001908083835b6020831015156109f657805182526020820191506020810190506020830392506109d1565b6001836020036101000a038019825116818451168082178552505050505050905001915050908152602001604051809103902060009054906101000a900473ffffffffffffffffffffffffffffffffffffffff1673ffffffffffffffffffffffffffffffffffffffff16145b1515610ad6576040517f08c379a00000000000000000000000000000000000000000000000000000000081526004018080602001828103825260108152602001807f496c6c6567616c2052656769737465720000000000000000000000000000000081525060200191505060405180910390fd5b60a0604051908101604052806002548152602001838152602001828152602001600073ffffffffffffffffffffffffffffffffffffffff16815260200160206040519081016040528060008152508152506000803373ffffffffffffffffffffffffffffffffffffffff1673ffffffffffffffffffffffffffffffffffffffff168152602001908152602001600020600082015181600001556020820151816001019080519060200190610b8b929190611434565b506040820151816002019080519060200190610ba8929190611434565b5060608201518160030160006101000a81548173ffffffffffffffffffffffffffffffffffffffff021916908373ffffffffffffffffffffffffffffffffffffffff1602179055506080820151816004019080519060200190610c0c929190611434565b509050506002600081548092919060010191905055507fa44804ddff8f1ee1b2c8ef9fc4a0f12a680dc5fe9ffeab08e97b44f19ed52ecd33604051808273ffffffffffffffffffffffffffffffffffffffff1673ffffffffffffffffffffffffffffffffffffffff16815260200191505060405180910390a15050565b3373ffffffffffffffffffffffffffffffffffffffff166000808473ffffffffffffffffffffffffffffffffffffffff1673ffffffffffffffffffffffffffffffffffffffff16815260200190815260200160002060030160009054906101000a900473ffffffffffffffffffffffffffffffffffffffff1673ffffffffffffffffffffffffffffffffffffffff16148015610d5157508173ffffffffffffffffffffffffffffffffffffffff163373ffffffffffffffffffffffffffffffffffffffff1614155b8015610db2575060008060003373ffffffffffffffffffffffffffffffffffffffff1673ffffffffffffffffffffffffffffffffffffffff168152602001908152602001600020600101805460018160011615610100020316600290049050115b8015610e13575060008060003373ffffffffffffffffffffffffffffffffffffffff1673ffffffffffffffffffffffffffffffffffffffff168152602001908152602001600020600201805460018160011615610100020316600290049050115b8015610e74575060008060008473ffffffffffffffffffffffffffffffffffffffff1673ffffffffffffffffffffffffffffffffffffffff168152602001908152602001600020600101805460018160011615610100020316600290049050115b8015610ed5575060008060008473ffffffffffffffffffffffffffffffffffffffff1673ffffffffffffffffffffffffffffffffffffffff168152602001908152602001600020600201805460018160011615610100020316600290049050115b8015610f6e5750600073ffffffffffffffffffffffffffffffffffffffff166000808473ffffffffffffffffffffffffffffffffffffffff1673ffffffffffffffffffffffffffffffffffffffff16815260200190815260200160002060030160009054906101000a900473ffffffffffffffffffffffffffffffffffffffff1673ffffffffffffffffffffffffffffffffffffffff16145b8015610fcf575060008060008473ffffffffffffffffffffffffffffffffffffffff1673ffffffffffffffffffffffffffffffffffffffff168152602001908152602001600020600401805460018160011615610100020316600290049050145b1515611043576040517f08c379a00000000000000000000000000000000000000000000000000000000081526004018080602001828103825260198152602001807f496c6c6567616c205369676e61747572652050726f636573730000000000000081525060200191505060405180910390fd5b336000808473ffffffffffffffffffffffffffffffffffffffff1673ffffffffffffffffffffffffffffffffffffffff16815260200190815260200160002060030160006101000a81548173ffffffffffffffffffffffffffffffffffffffff021916908373ffffffffffffffffffffffffffffffffffffffff160217905550806000808473ffffffffffffffffffffffffffffffffffffffff1673ffffffffffffffffffffffffffffffffffffffff16815260200190815260200160002060040190805190602001906111189291906114b4565b507f5e6d5db3810743cbe381d0f50a6aa773c9558c11ab0ea1862e9fafd1dad1f1153383604051808373ffffffffffffffffffffffffffffffffffffffff1673ffffffffffffffffffffffffffffffffffffffff1681526020018273ffffffffffffffffffffffffffffffffffffffff1673ffffffffffffffffffffffffffffffffffffffff1681526020019250505060405180910390a15050565b600073ffffffffffffffffffffffffffffffffffffffff166000808373ffffffffffffffffffffffffffffffffffffffff1673ffffffffffffffffffffffffffffffffffffffff16815260200190815260200160002060030160009054906101000a900473ffffffffffffffffffffffffffffffffffffffff1673ffffffffffffffffffffffffffffffffffffffff161480156112a6575060008060008373ffffffffffffffffffffffffffffffffffffffff1673ffffffffffffffffffffffffffffffffffffffff168152602001908152602001600020600401805460018160011615610100020316600290049050145b151561131a576040517f08c379a000000000000000000000000000000000000000000000000000000000815260040180806020018281038252601d8152602001807f54686973206964656e7469747920686173206265656e207369676e656400000081525060200191505060405180910390fd5b336000808373ffffffffffffffffffffffffffffffffffffffff1673ffffffffffffffffffffffffffffffffffffffff16815260200190815260200160002060030160006101000a81548173ffffffffffffffffffffffffffffffffffffffff021916908373ffffffffffffffffffffffffffffffffffffffff1602179055507f05c1409cc15c342fda5d547189b22d4c0712ed35dc687a8ab325eaf697f01eb78133604051808373ffffffffffffffffffffffffffffffffffffffff1673ffffffffffffffffffffffffffffffffffffffff1681526020018273ffffffffffffffffffffffffffffffffffffffff1673ffffffffffffffffffffffffffffffffffffffff1681526020019250505060405180910390a150565b828054600181600116156101000203166002900490600052602060002090601f016020900481019282601f1061147557805160ff19168380011785556114a3565b828001600101855582156114a3579182015b828111156114a2578251825591602001919060010190611487565b5b5090506114b09190611534565b5090565b828054600181600116156101000203166002900490600052602060002090601f016020900481019282601f106114f557805160ff1916838001178555611523565b82800160010185558215611523579182015b82811115611522578251825591602001919060010190611507565b5b5090506115309190611534565b5090565b61155691905b8082111561155257600081600090555060010161153a565b5090565b9056fea165627a7a723058201a94c676db075fca09d0dd2266951db7d7b88b784a71581d8b4160b8157a974c0029",
  "source": "pragma solidity ^0.5.0;\r\n// pragma experimental ABIEncoderV2;\r\n\r\ncontract DPKI {\r\n    \r\n    enum Status { Waiting, Registered }\r\n    \r\n    struct Identity {\r\n        uint no;\r\n        string ipAddr;\r\n        string pubkey;\r\n        address signer;\r\n        string certFileHash;\r\n    }\r\n    \r\n    mapping (address => Identity) identities;\r\n    mapping (string => address) ipAddresses;\r\n    \r\n    uint identityNumber;\r\n    \r\n    event AddedIdentity(address addr);\r\n    event AddedSigner(address signee, address signer);\r\n    event SignedIdentity(address signer, address signee);\r\n    // event SavedIdentityCertFile(address owner, string filehash);\r\n    // event UpdateIdentityInfo(address owner, string infoName, string newValue, string certFileHash);\r\n    \r\n    function addIdentity(string memory _ipAddr, string memory _pubkey) public {\r\n        require(\r\n            bytes(_ipAddr).length > 0 &&\r\n            bytes(_pubkey).length > 0 &&\r\n            bytes(identities[msg.sender].ipAddr).length == 0 &&\r\n            ipAddresses[_ipAddr] == address(0), \r\n            \"Illegal Register\"\r\n        );\r\n        \r\n        identities[msg.sender] = Identity(\r\n            identityNumber,\r\n            _ipAddr,\r\n            _pubkey,\r\n            address(0),\r\n            \"\"\r\n        );\r\n        \r\n        identityNumber++;\r\n        \r\n        emit AddedIdentity(msg.sender);\r\n    }\r\n    \r\n    function addSigner(address _signee) public {\r\n        require(\r\n            identities[_signee].signer == address(0) &&\r\n            bytes(identities[_signee].certFileHash).length == 0,\r\n            \"This identity has been signed\"\r\n        );\r\n        \r\n        identities[_signee].signer = msg.sender;\r\n        \r\n        emit AddedSigner(_signee, msg.sender);\r\n    }\r\n    \r\n    function saveCertFileHash(address _signee, string memory _fileHash) public {\r\n        require(\r\n            identities[_signee].signer == msg.sender &&\r\n            msg.sender != _signee &&\r\n            bytes(identities[msg.sender].ipAddr).length > 0 &&\r\n            bytes(identities[msg.sender].pubkey).length > 0 &&\r\n            bytes(identities[_signee].ipAddr).length > 0 &&\r\n            bytes(identities[_signee].pubkey).length > 0 &&\r\n            identities[_signee].signer == address(0) &&\r\n            bytes(identities[_signee].certFileHash).length == 0,\r\n            \"Illegal Signature Process\"\r\n        );\r\n        \r\n        identities[_signee].signer = msg.sender;\r\n        identities[_signee].certFileHash = _fileHash;\r\n        \r\n        emit SignedIdentity(msg.sender, _signee);\r\n    }\r\n    \r\n    // function saveCertFileHash(string memory _fileHash) public {\r\n    //     require(\r\n    //         bytes(identities[msg.sender].certFileHash).length == 0,\r\n    //         \"You Have Owned A Certificate Already\"\r\n    //     );\r\n        \r\n    //     identities[msg.sender].certFileHash = _fileHash;\r\n        \r\n    //     emit SavedIdentityCertFile(msg.sender, _fileHash);\r\n    // }\r\n\r\n    function getIdentity(address _addr) public view returns (uint, string memory, string memory, address, string memory) {\r\n        require(identities[_addr].no >= 0, \"This Address Has No Identity Yet\");\r\n\r\n        return (\r\n            identities[_addr].no,\r\n            identities[_addr].ipAddr,\r\n            identities[_addr].pubkey,\r\n            identities[_addr].signer,\r\n            identities[_addr].certFileHash\r\n        );\r\n    }\r\n    \r\n    function getIdentityNumber() public view returns (uint) {\r\n        return identityNumber;\r\n    }\r\n    \r\n}\r\n",
  "sourcePath": "E:/Projects/dkpi-prototype/contracts/DPKI.sol",
  "compiler": {
    "name": "solc",
    "version": "0.5.0+commit.1d4f565a.Emscripten.clang"
  },
  "schemaVersion": "3.0.3",
  "updatedAt": "2019-04-02T08:43:36.338Z",
  "devdoc": {
    "methods": {}
  },
  "userdoc": {
    "methods": {}
  }
}