{
  "contractName": "DPKI",
  "abi": [
    {
      "anonymous": false,
      "inputs": [
        {
          "indexed": false,
          "name": "addr",
          "type": "address"
        }
      ],
      "name": "AddedIdentity",
      "type": "event"
    },
    {
      "anonymous": false,
      "inputs": [
        {
          "indexed": false,
          "name": "addr",
          "type": "address"
        }
      ],
      "name": "AddedDIDHash",
      "type": "event"
    },
    {
      "constant": false,
      "inputs": [
        {
          "name": "_pubkey",
          "type": "string"
        }
      ],
      "name": "addIdentity",
      "outputs": [],
      "payable": false,
      "stateMutability": "nonpayable",
      "type": "function"
    },
    {
      "constant": false,
      "inputs": [
        {
          "name": "_fileHash",
          "type": "string"
        }
      ],
      "name": "saveDIDHash",
      "outputs": [],
      "payable": false,
      "stateMutability": "nonpayable",
      "type": "function"
    },
    {
      "constant": true,
      "inputs": [
        {
          "name": "_addr",
          "type": "address"
        }
      ],
      "name": "getIdentity",
      "outputs": [
        {
          "name": "",
          "type": "uint256"
        },
        {
          "name": "",
          "type": "string"
        },
        {
          "name": "",
          "type": "string"
        }
      ],
      "payable": false,
      "stateMutability": "view",
      "type": "function"
    },
    {
      "constant": true,
      "inputs": [],
      "name": "getIdentityNumber",
      "outputs": [
        {
          "name": "",
          "type": "uint256"
        }
      ],
      "payable": false,
      "stateMutability": "view",
      "type": "function"
    }
  ],
  "bytecode": "0x608060405234801561001057600080fd5b50610975806100206000396000f3fe608060405260043610610062576000357c0100000000000000000000000000000000000000000000000000000000900463ffffffff1680632fea7b81146100675780633ce65e1f146101a45780637a7607f51461026c578063f42fda2c14610297575b600080fd5b34801561007357600080fd5b506100b66004803603602081101561008a57600080fd5b81019080803573ffffffffffffffffffffffffffffffffffffffff16906020019092919050505061035f565b604051808481526020018060200180602001838103835285818151815260200191508051906020019080838360005b838110156101005780820151818401526020810190506100e5565b50505050905090810190601f16801561012d5780820380516001836020036101000a031916815260200191505b50838103825284818151815260200191508051906020019080838360005b8381101561016657808201518184015260208101905061014b565b50505050905090810190601f1680156101935780820380516001836020036101000a031916815260200191505b509550505050505060405180910390f35b3480156101b057600080fd5b5061026a600480360360208110156101c757600080fd5b81019080803590602001906401000000008111156101e457600080fd5b8201836020820111156101f657600080fd5b8035906020019184600183028401116401000000008311171561021857600080fd5b91908080601f016020809104026020016040519081016040528093929190818152602001838380828437600081840152601f19601f82011690508083019250505050505050919291929050505061056d565b005b34801561027857600080fd5b5061028161075e565b6040518082815260200191505060405180910390f35b3480156102a357600080fd5b5061035d600480360360208110156102ba57600080fd5b81019080803590602001906401000000008111156102d757600080fd5b8201836020820111156102e957600080fd5b8035906020019184600183028401116401000000008311171561030b57600080fd5b91908080601f016020809104026020016040519081016040528093929190818152602001838380828437600081840152601f19601f820116905080830192505050505050509192919290505050610768565b005b60006060806000808573ffffffffffffffffffffffffffffffffffffffff1673ffffffffffffffffffffffffffffffffffffffff168152602001908152602001600020600001546000808673ffffffffffffffffffffffffffffffffffffffff1673ffffffffffffffffffffffffffffffffffffffff1681526020019081526020016000206001016000808773ffffffffffffffffffffffffffffffffffffffff1673ffffffffffffffffffffffffffffffffffffffff168152602001908152602001600020600201818054600181600116156101000203166002900480601f0160208091040260200160405190810160405280929190818152602001828054600181600116156101000203166002900480156104bd5780601f10610492576101008083540402835291602001916104bd565b820191906000526020600020905b8154815290600101906020018083116104a057829003601f168201915b50505050509150808054600181600116156101000203166002900480601f0160208091040260200160405190810160405280929190818152602001828054600181600116156101000203166002900480156105595780601f1061052e57610100808354040283529160200191610559565b820191906000526020600020905b81548152906001019060200180831161053c57829003601f168201915b505050505090509250925092509193909250565b60008060003373ffffffffffffffffffffffffffffffffffffffff1673ffffffffffffffffffffffffffffffffffffffff168152602001908152602001600020600001541480156105bf575060008151115b1515610633576040517f08c379a00000000000000000000000000000000000000000000000000000000081526004018080602001828103825260108152602001807f496c6c6567616c2052656769737465720000000000000000000000000000000081525060200191505060405180910390fd5b600160008154809291906001019190505550606060405190810160405280600154815260200182815260200160206040519081016040528060008152508152506000803373ffffffffffffffffffffffffffffffffffffffff1673ffffffffffffffffffffffffffffffffffffffff1681526020019081526020016000206000820151816000015560208201518160010190805190602001906106d7929190610824565b5060408201518160020190805190602001906106f4929190610824565b509050507fa44804ddff8f1ee1b2c8ef9fc4a0f12a680dc5fe9ffeab08e97b44f19ed52ecd33604051808273ffffffffffffffffffffffffffffffffffffffff1673ffffffffffffffffffffffffffffffffffffffff16815260200191505060405180910390a150565b6000600154905090565b806000803373ffffffffffffffffffffffffffffffffffffffff1673ffffffffffffffffffffffffffffffffffffffff16815260200190815260200160002060020190805190602001906107bd9291906108a4565b507f28eedb35edc8b7fbd4c0d971f88e80f97ffb270d12c7076dfca720dbe864dc7e33604051808273ffffffffffffffffffffffffffffffffffffffff1673ffffffffffffffffffffffffffffffffffffffff16815260200191505060405180910390a150565b828054600181600116156101000203166002900490600052602060002090601f016020900481019282601f1061086557805160ff1916838001178555610893565b82800160010185558215610893579182015b82811115610892578251825591602001919060010190610877565b5b5090506108a09190610924565b5090565b828054600181600116156101000203166002900490600052602060002090601f016020900481019282601f106108e557805160ff1916838001178555610913565b82800160010185558215610913579182015b828111156109125782518255916020019190600101906108f7565b5b5090506109209190610924565b5090565b61094691905b8082111561094257600081600090555060010161092a565b5090565b9056fea165627a7a72305820a2693d928a82ae435287cc7f4aee0378f5053d3865675786622b72c32ed068600029",
  "source": "pragma solidity ^0.5.0;\r\n// pragma experimental ABIEncoderV2;\r\n\r\ncontract DPKI {\r\n    \r\n    enum Status { Waiting, Registered }\r\n    \r\n    struct Identity {\r\n        uint no;\r\n        string pubkey;\r\n        string DIDHash;\r\n    }\r\n    \r\n    mapping (address => Identity) identities;\r\n    \r\n    uint identityNumber;\r\n    \r\n    event AddedIdentity(address addr);\r\n    event AddedDIDHash(address addr);\r\n    \r\n    function addIdentity(string memory _pubkey) public {\r\n        require(\r\n            identities[msg.sender].no == 0 &&\r\n            bytes(_pubkey).length > 0, \r\n            \"Illegal Register\"\r\n        );\r\n        \r\n        identityNumber++;\r\n        \r\n        identities[msg.sender] = Identity(\r\n            identityNumber,\r\n            _pubkey,\r\n            \"\"\r\n        );\r\n        \r\n        emit AddedIdentity(msg.sender);\r\n    }\r\n    \r\n    function saveDIDHash(string memory _fileHash) public {\r\n        identities[msg.sender].DIDHash = _fileHash;\r\n        emit AddedDIDHash(msg.sender);\r\n    }\r\n\r\n    function getIdentity(address _addr) public view returns (uint, string memory, string memory) {\r\n        return (\r\n            identities[_addr].no,\r\n            identities[_addr].pubkey,\r\n            identities[_addr].DIDHash\r\n        );\r\n    }\r\n    \r\n    function getIdentityNumber() public view returns (uint) {\r\n        return identityNumber;\r\n    }\r\n    \r\n}\r\n",
  "sourcePath": "E:/Projects/dkpi-prototype/contracts/DPKI.sol",
  "compiler": {
    "name": "solc",
    "version": "0.5.0+commit.1d4f565a.Emscripten.clang"
  },
  "schemaVersion": "3.0.3",
  "updatedAt": "2019-04-11T14:30:12.121Z",
  "devdoc": {
    "methods": {}
  },
  "userdoc": {
    "methods": {}
  }
}